{
  "_format": "hh-sol-artifact-1",
  "contractName": "DocumentVerification",
  "sourceName": "contracts/DocumentVerification.sol",
  "abi": [
    {
      "inputs": [],
      "stateMutability": "nonpayable",
      "type": "constructor"
    },
    {
      "inputs": [
        {
          "internalType": "address",
          "name": "owner",
          "type": "address"
        }
      ],
      "name": "OwnableInvalidOwner",
      "type": "error"
    },
    {
      "inputs": [
        {
          "internalType": "address",
          "name": "account",
          "type": "address"
        }
      ],
      "name": "OwnableUnauthorizedAccount",
      "type": "error"
    },
    {
      "anonymous": false,
      "inputs": [
        {
          "indexed": true,
          "internalType": "string",
          "name": "documentHash",
          "type": "string"
        },
        {
          "indexed": true,
          "internalType": "address",
          "name": "owner",
          "type": "address"
        },
        {
          "indexed": false,
          "internalType": "uint256",
          "name": "timestamp",
          "type": "uint256"
        }
      ],
      "name": "DocumentAdded",
      "type": "event"
    },
    {
      "anonymous": false,
      "inputs": [
        {
          "indexed": true,
          "internalType": "string",
          "name": "documentHash",
          "type": "string"
        },
        {
          "indexed": true,
          "internalType": "address",
          "name": "previousOwner",
          "type": "address"
        },
        {
          "indexed": true,
          "internalType": "address",
          "name": "newOwner",
          "type": "address"
        }
      ],
      "name": "DocumentOwnershipTransferred",
      "type": "event"
    },
    {
      "anonymous": false,
      "inputs": [
        {
          "indexed": true,
          "internalType": "address",
          "name": "previousOwner",
          "type": "address"
        },
        {
          "indexed": true,
          "internalType": "address",
          "name": "newOwner",
          "type": "address"
        }
      ],
      "name": "OwnershipTransferred",
      "type": "event"
    },
    {
      "anonymous": false,
      "inputs": [
        {
          "indexed": true,
          "internalType": "string",
          "name": "documentHash",
          "type": "string"
        },
        {
          "indexed": false,
          "internalType": "string",
          "name": "token",
          "type": "string"
        },
        {
          "indexed": false,
          "internalType": "uint256",
          "name": "expiryTime",
          "type": "uint256"
        }
      ],
      "name": "ShareTokenCreated",
      "type": "event"
    },
    {
      "anonymous": false,
      "inputs": [
        {
          "indexed": true,
          "internalType": "string",
          "name": "documentHash",
          "type": "string"
        },
        {
          "indexed": false,
          "internalType": "string",
          "name": "token",
          "type": "string"
        }
      ],
      "name": "ShareTokenRevoked",
      "type": "event"
    },
    {
      "inputs": [
        {
          "internalType": "string",
          "name": "_documentHash",
          "type": "string"
        },
        {
          "internalType": "string",
          "name": "_documentType",
          "type": "string"
        },
        {
          "internalType": "string",
          "name": "_documentName",
          "type": "string"
        }
      ],
      "name": "addDocument",
      "outputs": [],
      "stateMutability": "nonpayable",
      "type": "function"
    },
    {
      "inputs": [
        {
          "internalType": "string",
          "name": "_documentHash",
          "type": "string"
        },
        {
          "internalType": "uint256",
          "name": "_expiryTime",
          "type": "uint256"
        }
      ],
      "name": "createShareToken",
      "outputs": [
        {
          "internalType": "string",
          "name": "",
          "type": "string"
        }
      ],
      "stateMutability": "nonpayable",
      "type": "function"
    },
    {
      "inputs": [
        {
          "internalType": "string",
          "name": "_documentHash",
          "type": "string"
        }
      ],
      "name": "getDocument",
      "outputs": [
        {
          "components": [
            {
              "internalType": "string",
              "name": "documentHash",
              "type": "string"
            },
            {
              "internalType": "address",
              "name": "owner",
              "type": "address"
            },
            {
              "internalType": "uint256",
              "name": "timestamp",
              "type": "uint256"
            },
            {
              "internalType": "string",
              "name": "documentType",
              "type": "string"
            },
            {
              "internalType": "string",
              "name": "documentName",
              "type": "string"
            }
          ],
          "internalType": "struct DocumentVerification.Document",
          "name": "",
          "type": "tuple"
        }
      ],
      "stateMutability": "view",
      "type": "function"
    },
    {
      "inputs": [
        {
          "internalType": "string",
          "name": "_token",
          "type": "string"
        }
      ],
      "name": "getDocumentByToken",
      "outputs": [
        {
          "internalType": "bool",
          "name": "isValid",
          "type": "bool"
        },
        {
          "components": [
            {
              "internalType": "string",
              "name": "documentHash",
              "type": "string"
            },
            {
              "internalType": "address",
              "name": "owner",
              "type": "address"
            },
            {
              "internalType": "uint256",
              "name": "timestamp",
              "type": "uint256"
            },
            {
              "internalType": "string",
              "name": "documentType",
              "type": "string"
            },
            {
              "internalType": "string",
              "name": "documentName",
              "type": "string"
            }
          ],
          "internalType": "struct DocumentVerification.Document",
          "name": "documentInfo",
          "type": "tuple"
        }
      ],
      "stateMutability": "view",
      "type": "function"
    },
    {
      "inputs": [],
      "name": "getDocumentCount",
      "outputs": [
        {
          "internalType": "uint256",
          "name": "",
          "type": "uint256"
        }
      ],
      "stateMutability": "view",
      "type": "function"
    },
    {
      "inputs": [
        {
          "internalType": "string",
          "name": "_documentHash",
          "type": "string"
        }
      ],
      "name": "getDocumentShareTokens",
      "outputs": [
        {
          "components": [
            {
              "internalType": "string",
              "name": "token",
              "type": "string"
            },
            {
              "internalType": "string",
              "name": "documentHash",
              "type": "string"
            },
            {
              "internalType": "uint256",
              "name": "expiryTime",
              "type": "uint256"
            },
            {
              "internalType": "bool",
              "name": "isRevoked",
              "type": "bool"
            }
          ],
          "internalType": "struct DocumentVerification.ShareToken[]",
          "name": "",
          "type": "tuple[]"
        }
      ],
      "stateMutability": "view",
      "type": "function"
    },
    {
      "inputs": [
        {
          "internalType": "address",
          "name": "_owner",
          "type": "address"
        }
      ],
      "name": "getDocumentsByOwner",
      "outputs": [
        {
          "internalType": "string[]",
          "name": "",
          "type": "string[]"
        }
      ],
      "stateMutability": "view",
      "type": "function"
    },
    {
      "inputs": [],
      "name": "owner",
      "outputs": [
        {
          "internalType": "address",
          "name": "",
          "type": "address"
        }
      ],
      "stateMutability": "view",
      "type": "function"
    },
    {
      "inputs": [],
      "name": "renounceOwnership",
      "outputs": [],
      "stateMutability": "nonpayable",
      "type": "function"
    },
    {
      "inputs": [
        {
          "internalType": "string",
          "name": "_token",
          "type": "string"
        }
      ],
      "name": "revokeShareToken",
      "outputs": [],
      "stateMutability": "nonpayable",
      "type": "function"
    },
    {
      "inputs": [
        {
          "internalType": "string",
          "name": "_documentHash",
          "type": "string"
        },
        {
          "internalType": "address",
          "name": "_newOwner",
          "type": "address"
        }
      ],
      "name": "transferDocumentOwnership",
      "outputs": [],
      "stateMutability": "nonpayable",
      "type": "function"
    },
    {
      "inputs": [
        {
          "internalType": "address",
          "name": "newOwner",
          "type": "address"
        }
      ],
      "name": "transferOwnership",
      "outputs": [],
      "stateMutability": "nonpayable",
      "type": "function"
    },
    {
      "inputs": [
        {
          "internalType": "string",
          "name": "_documentHash",
          "type": "string"
        }
      ],
      "name": "verifyDocument",
      "outputs": [
        {
          "internalType": "bool",
          "name": "isAuthentic",
          "type": "bool"
        },
        {
          "components": [
            {
              "internalType": "string",
              "name": "documentHash",
              "type": "string"
            },
            {
              "internalType": "address",
              "name": "owner",
              "type": "address"
            },
            {
              "internalType": "uint256",
              "name": "timestamp",
              "type": "uint256"
            },
            {
              "internalType": "string",
              "name": "documentType",
              "type": "string"
            },
            {
              "internalType": "string",
              "name": "documentName",
              "type": "string"
            }
          ],
          "internalType": "struct DocumentVerification.Document",
          "name": "documentInfo",
          "type": "tuple"
        }
      ],
      "stateMutability": "view",
      "type": "function"
    }
  ],
  "bytecode": "0x60806040523480156200001157600080fd5b5033600073ffffffffffffffffffffffffffffffffffffffff168173ffffffffffffffffffffffffffffffffffffffff1603620000885760006040517f1e4fbdf70000000000000000000000000000000000000000000000000000000081526004016200007f9190620001a9565b60405180910390fd5b6200009981620000a060201b60201c565b50620001c6565b60008060009054906101000a900473ffffffffffffffffffffffffffffffffffffffff169050816000806101000a81548173ffffffffffffffffffffffffffffffffffffffff021916908373ffffffffffffffffffffffffffffffffffffffff1602179055508173ffffffffffffffffffffffffffffffffffffffff168173ffffffffffffffffffffffffffffffffffffffff167f8be0079c531659141344cd1fd0a4f28419497f9722a3daafe3b4186f6b6457e060405160405180910390a35050565b600073ffffffffffffffffffffffffffffffffffffffff82169050919050565b6000620001918262000164565b9050919050565b620001a38162000184565b82525050565b6000602082019050620001c0600083018462000198565b92915050565b61392380620001d66000396000f3fe608060405234801561001057600080fd5b50600436106100cf5760003560e01c80638da5cb5b1161008c578063b039bcde11610066578063b039bcde14610213578063b1de2b311461022f578063beee5eb71461025f578063f2fde38b14610290576100cf565b80638da5cb5b146101a8578063a48818b5146101c6578063a948062f146101e2576100cf565b806336a8915b146100d45780633d1c2273146100f05780635fc6faa41461010e578063715018a61461013e5780637ccb6a64146101485780637ddfc7d414610178575b600080fd5b6100ee60048036038101906100e99190612607565b6102ac565b005b6100f86104ef565b60405161010591906126c7565b60405180910390f35b610128600480360381019061012391906126e2565b6104fc565b6040516101359190612900565b60405180910390f35b61014661093c565b005b610162600480360381019061015d91906126e2565b610950565b60405161016f91906129e7565b60405180910390f35b610192600480360381019061018d9190612a35565b610b9e565b60405161019f9190612b24565b60405180910390f35b6101b0610e4c565b6040516101bd9190612b55565b60405180910390f35b6101e060048036038101906101db91906126e2565b610e75565b005b6101fc60048036038101906101f791906126e2565b6110cd565b60405161020a929190612b7f565b60405180910390f35b61022d60048036038101906102289190612baf565b6115db565b005b61024960048036038101906102449190612c37565b6118f2565b6040516102569190612cdd565b60405180910390f35b610279600480360381019061027491906126e2565b611c1c565b604051610287929190612b7f565b60405180910390f35b6102aa60048036038101906102a59190612a35565b611e9f565b005b60008351116102f0576040517f08c379a00000000000000000000000000000000000000000000000000000000081526004016102e790612d4b565b60405180910390fd5b60006001846040516103029190612da7565b9081526020016040518091039020600001805461031e90612ded565b905014610360576040517f08c379a000000000000000000000000000000000000000000000000000000000815260040161035790612e6a565b60405180910390fd5b6040518060a001604052808481526020013373ffffffffffffffffffffffffffffffffffffffff168152602001428152602001838152602001828152506001846040516103ad9190612da7565b908152602001604051809103902060008201518160000190816103d09190613036565b5060208201518160010160006101000a81548173ffffffffffffffffffffffffffffffffffffffff021916908373ffffffffffffffffffffffffffffffffffffffff1602179055506040820151816002015560608201518160030190816104379190613036565b50608082015181600401908161044d9190613036565b509050506002839080600181540180825580915050600190039060005260206000200160009091909190915090816104859190613036565b503373ffffffffffffffffffffffffffffffffffffffff16836040516104ab9190612da7565b60405180910390207fc6b68a4d2229a04f4ab4f6fa272ce60f973c078b7f2b0e6feb7493dd90b7dc04426040516104e291906126c7565b60405180910390a3505050565b6000600280549050905090565b606060006001836040516105109190612da7565b9081526020016040518091039020600001805461052c90612ded565b90501161056e576040517f08c379a000000000000000000000000000000000000000000000000000000000815260040161056590613154565b60405180910390fd5b3373ffffffffffffffffffffffffffffffffffffffff166001836040516105959190612da7565b908152602001604051809103902060010160009054906101000a900473ffffffffffffffffffffffffffffffffffffffff1673ffffffffffffffffffffffffffffffffffffffff161461061d576040517f08c379a0000000000000000000000000000000000000000000000000000000008152600401610614906131e6565b60405180910390fd5b600060048360405161062f9190612da7565b9081526020016040518091039020805480602002602001604051908101604052809291908181526020016000905b8282101561070957838290600052602060002001805461067c90612ded565b80601f01602080910402602001604051908101604052809291908181526020018280546106a890612ded565b80156106f55780601f106106ca576101008083540402835291602001916106f5565b820191906000526020600020905b8154815290600101906020018083116106d857829003601f168201915b50505050508152602001906001019061065d565b5050505090506000815167ffffffffffffffff81111561072c5761072b6124dc565b5b60405190808252806020026020018201604052801561076557816020015b61075261243e565b81526020019060019003908161074a5790505b50905060005b825181101561093157600383828151811061078957610788613206565b5b602002602001015160405161079e9190612da7565b90815260200160405180910390206040518060800160405290816000820180546107c790612ded565b80601f01602080910402602001604051908101604052809291908181526020018280546107f390612ded565b80156108405780601f1061081557610100808354040283529160200191610840565b820191906000526020600020905b81548152906001019060200180831161082357829003601f168201915b5050505050815260200160018201805461085990612ded565b80601f016020809104026020016040519081016040528092919081815260200182805461088590612ded565b80156108d25780601f106108a7576101008083540402835291602001916108d2565b820191906000526020600020905b8154815290600101906020018083116108b557829003601f168201915b50505050508152602001600282015481526020016003820160009054906101000a900460ff16151515158152505082828151811061091357610912613206565b5b6020026020010181905250808061092990613264565b91505061076b565b508092505050919050565b610944611f25565b61094e6000611fac565b565b610958612468565b6001826040516109689190612da7565b90815260200160405180910390206040518060a001604052908160008201805461099190612ded565b80601f01602080910402602001604051908101604052809291908181526020018280546109bd90612ded565b8015610a0a5780601f106109df57610100808354040283529160200191610a0a565b820191906000526020600020905b8154815290600101906020018083116109ed57829003601f168201915b505050505081526020016001820160009054906101000a900473ffffffffffffffffffffffffffffffffffffffff1673ffffffffffffffffffffffffffffffffffffffff1673ffffffffffffffffffffffffffffffffffffffff16815260200160028201548152602001600382018054610a8390612ded565b80601f0160208091040260200160405190810160405280929190818152602001828054610aaf90612ded565b8015610afc5780601f10610ad157610100808354040283529160200191610afc565b820191906000526020600020905b815481529060010190602001808311610adf57829003601f168201915b50505050508152602001600482018054610b1590612ded565b80601f0160208091040260200160405190810160405280929190818152602001828054610b4190612ded565b8015610b8e5780601f10610b6357610100808354040283529160200191610b8e565b820191906000526020600020905b815481529060010190602001808311610b7157829003601f168201915b5050505050815250509050919050565b60606000805b600280549050811015610c64578373ffffffffffffffffffffffffffffffffffffffff16600160028381548110610bde57610bdd613206565b5b90600052602060002001604051610bf5919061332f565b908152602001604051809103902060010160009054906101000a900473ffffffffffffffffffffffffffffffffffffffff1673ffffffffffffffffffffffffffffffffffffffff1603610c51578180610c4d90613264565b9250505b8080610c5c90613264565b915050610ba4565b5060008167ffffffffffffffff811115610c8157610c806124dc565b5b604051908082528060200260200182016040528015610cb457816020015b6060815260200190600190039081610c9f5790505b5090506000805b600280549050811015610e40578573ffffffffffffffffffffffffffffffffffffffff16600160028381548110610cf557610cf4613206565b5b90600052602060002001604051610d0c919061332f565b908152602001604051809103902060010160009054906101000a900473ffffffffffffffffffffffffffffffffffffffff1673ffffffffffffffffffffffffffffffffffffffff1603610e2d5760028181548110610d6d57610d6c613206565b5b906000526020600020018054610d8290612ded565b80601f0160208091040260200160405190810160405280929190818152602001828054610dae90612ded565b8015610dfb5780601f10610dd057610100808354040283529160200191610dfb565b820191906000526020600020905b815481529060010190602001808311610dde57829003601f168201915b5050505050838381518110610e1357610e12613206565b5b60200260200101819052508180610e2990613264565b9250505b8080610e3890613264565b915050610cbb565b50819350505050919050565b60008060009054906101000a900473ffffffffffffffffffffffffffffffffffffffff16905090565b6000600382604051610e879190612da7565b90815260200160405180910390206000018054610ea390612ded565b905011610ee5576040517f08c379a0000000000000000000000000000000000000000000000000000000008152600401610edc90613392565b60405180910390fd5b6000600382604051610ef79190612da7565b90815260200160405180910390206001018054610f1390612ded565b80601f0160208091040260200160405190810160405280929190818152602001828054610f3f90612ded565b8015610f8c5780601f10610f6157610100808354040283529160200191610f8c565b820191906000526020600020905b815481529060010190602001808311610f6f57829003601f168201915b505050505090503373ffffffffffffffffffffffffffffffffffffffff16600182604051610fba9190612da7565b908152602001604051809103902060010160009054906101000a900473ffffffffffffffffffffffffffffffffffffffff1673ffffffffffffffffffffffffffffffffffffffff1614611042576040517f08c379a000000000000000000000000000000000000000000000000000000000815260040161103990613424565b60405180910390fd5b60016003836040516110549190612da7565b908152602001604051809103902060030160006101000a81548160ff0219169083151502179055508060405161108a9190612da7565b60405180910390207fd5736a41ca7916efa56a0ccca2abaf34268adcd5299141aa466285ebcae7462b836040516110c19190612cdd565b60405180910390a25050565b60006110d7612468565b60006003846040516110e99190612da7565b9081526020016040518091039020600001805461110590612ded565b9050036111835760006040518060a00160405280604051806020016040528060008152508152602001600073ffffffffffffffffffffffffffffffffffffffff1681526020016000815260200160405180602001604052806000815250815260200160405180602001604052806000815250815250915091506115d6565b60006003846040516111959190612da7565b90815260200160405180910390206040518060800160405290816000820180546111be90612ded565b80601f01602080910402602001604051908101604052809291908181526020018280546111ea90612ded565b80156112375780601f1061120c57610100808354040283529160200191611237565b820191906000526020600020905b81548152906001019060200180831161121a57829003601f168201915b5050505050815260200160018201805461125090612ded565b80601f016020809104026020016040519081016040528092919081815260200182805461127c90612ded565b80156112c95780601f1061129e576101008083540402835291602001916112c9565b820191906000526020600020905b8154815290600101906020018083116112ac57829003601f168201915b50505050508152602001600282015481526020016003820160009054906101000a900460ff1615151515815250509050428160400151108061130c575080606001515b156113895760006040518060a00160405280604051806020016040528060008152508152602001600073ffffffffffffffffffffffffffffffffffffffff168152602001600081526020016040518060200160405280600081525081526020016040518060200160405280600081525081525092509250506115d6565b600180826020015160405161139e9190612da7565b9081526020016040518091039020806040518060a00160405290816000820180546113c890612ded565b80601f01602080910402602001604051908101604052809291908181526020018280546113f490612ded565b80156114415780601f1061141657610100808354040283529160200191611441565b820191906000526020600020905b81548152906001019060200180831161142457829003601f168201915b505050505081526020016001820160009054906101000a900473ffffffffffffffffffffffffffffffffffffffff1673ffffffffffffffffffffffffffffffffffffffff1673ffffffffffffffffffffffffffffffffffffffff168152602001600282015481526020016003820180546114ba90612ded565b80601f01602080910402602001604051908101604052809291908181526020018280546114e690612ded565b80156115335780601f1061150857610100808354040283529160200191611533565b820191906000526020600020905b81548152906001019060200180831161151657829003601f168201915b5050505050815260200160048201805461154c90612ded565b80601f016020809104026020016040519081016040528092919081815260200182805461157890612ded565b80156115c55780601f1061159a576101008083540402835291602001916115c5565b820191906000526020600020905b8154815290600101906020018083116115a857829003601f168201915b505050505081525050905092509250505b915091565b60006001836040516115ed9190612da7565b9081526020016040518091039020600001805461160990612ded565b90501161164b576040517f08c379a000000000000000000000000000000000000000000000000000000000815260040161164290613154565b60405180910390fd5b3373ffffffffffffffffffffffffffffffffffffffff166001836040516116729190612da7565b908152602001604051809103902060010160009054906101000a900473ffffffffffffffffffffffffffffffffffffffff1673ffffffffffffffffffffffffffffffffffffffff16146116fa576040517f08c379a00000000000000000000000000000000000000000000000000000000081526004016116f1906134b6565b60405180910390fd5b600073ffffffffffffffffffffffffffffffffffffffff168173ffffffffffffffffffffffffffffffffffffffff1603611769576040517f08c379a000000000000000000000000000000000000000000000000000000000815260040161176090613548565b60405180910390fd5b3373ffffffffffffffffffffffffffffffffffffffff168173ffffffffffffffffffffffffffffffffffffffff16036117d7576040517f08c379a00000000000000000000000000000000000000000000000000000000081526004016117ce906135da565b60405180910390fd5b60006001836040516117e99190612da7565b908152602001604051809103902060010160009054906101000a900473ffffffffffffffffffffffffffffffffffffffff1690508160018460405161182e9190612da7565b908152602001604051809103902060010160006101000a81548173ffffffffffffffffffffffffffffffffffffffff021916908373ffffffffffffffffffffffffffffffffffffffff1602179055508173ffffffffffffffffffffffffffffffffffffffff168173ffffffffffffffffffffffffffffffffffffffff16846040516118b99190612da7565b60405180910390207fbc30080c72200e43b1d2c394df83006bcbc1c0580c46f95353f27997ca57f6f760405160405180910390a4505050565b606060006001846040516119069190612da7565b9081526020016040518091039020600001805461192290612ded565b905011611964576040517f08c379a000000000000000000000000000000000000000000000000000000000815260040161195b90613154565b60405180910390fd5b3373ffffffffffffffffffffffffffffffffffffffff1660018460405161198b9190612da7565b908152602001604051809103902060010160009054906101000a900473ffffffffffffffffffffffffffffffffffffffff1673ffffffffffffffffffffffffffffffffffffffff1614611a13576040517f08c379a0000000000000000000000000000000000000000000000000000000008152600401611a0a9061366c565b60405180910390fd5b428211611a55576040517f08c379a0000000000000000000000000000000000000000000000000000000008152600401611a4c906136fe565b60405180910390fd5b6000833342600487604051611a6a9190612da7565b908152602001604051809103902080549050604051602001611a8f9493929190613787565b60405160208183030381529060405290506000611ad482604051602001611ab69190612da7565b6040516020818303038152906040528051906020012060001c612070565b9050604051806080016040528082815260200186815260200185815260200160001515815250600382604051611b0a9190612da7565b90815260200160405180910390206000820151816000019081611b2d9190613036565b506020820151816001019081611b439190613036565b506040820151816002015560608201518160030160006101000a81548160ff021916908315150217905550905050600485604051611b819190612da7565b908152602001604051809103902081908060018154018082558091505060019003906000526020600020016000909190919091509081611bc19190613036565b5084604051611bd09190612da7565b60405180910390207f73494395f70c9cdc53ac674aef202e31aff66871222f275a1a1140d64540a7df8286604051611c099291906137d1565b60405180910390a2809250505092915050565b6000611c26612468565b6000600184604051611c389190612da7565b90815260200160405180910390206000018054611c5490612ded565b9050119150600183604051611c699190612da7565b90815260200160405180910390206040518060a0016040529081600082018054611c9290612ded565b80601f0160208091040260200160405190810160405280929190818152602001828054611cbe90612ded565b8015611d0b5780601f10611ce057610100808354040283529160200191611d0b565b820191906000526020600020905b815481529060010190602001808311611cee57829003601f168201915b505050505081526020016001820160009054906101000a900473ffffffffffffffffffffffffffffffffffffffff1673ffffffffffffffffffffffffffffffffffffffff1673ffffffffffffffffffffffffffffffffffffffff16815260200160028201548152602001600382018054611d8490612ded565b80601f0160208091040260200160405190810160405280929190818152602001828054611db090612ded565b8015611dfd5780601f10611dd257610100808354040283529160200191611dfd565b820191906000526020600020905b815481529060010190602001808311611de057829003601f168201915b50505050508152602001600482018054611e1690612ded565b80601f0160208091040260200160405190810160405280929190818152602001828054611e4290612ded565b8015611e8f5780601f10611e6457610100808354040283529160200191611e8f565b820191906000526020600020905b815481529060010190602001808311611e7257829003601f168201915b5050505050815250509050915091565b611ea7611f25565b600073ffffffffffffffffffffffffffffffffffffffff168173ffffffffffffffffffffffffffffffffffffffff1603611f195760006040517f1e4fbdf7000000000000000000000000000000000000000000000000000000008152600401611f109190612b55565b60405180910390fd5b611f2281611fac565b50565b611f2d612436565b73ffffffffffffffffffffffffffffffffffffffff16611f4b610e4c565b73ffffffffffffffffffffffffffffffffffffffff1614611faa57611f6e612436565b6040517f118cdaa7000000000000000000000000000000000000000000000000000000008152600401611fa19190612b55565b60405180910390fd5b565b60008060009054906101000a900473ffffffffffffffffffffffffffffffffffffffff169050816000806101000a81548173ffffffffffffffffffffffffffffffffffffffff021916908373ffffffffffffffffffffffffffffffffffffffff1602179055508173ffffffffffffffffffffffffffffffffffffffff168173ffffffffffffffffffffffffffffffffffffffff167f8be0079c531659141344cd1fd0a4f28419497f9722a3daafe3b4186f6b6457e060405160405180910390a35050565b6060600082036120b7576040518060400160405280600481526020017f30783030000000000000000000000000000000000000000000000000000000008152509050612431565b6000604067ffffffffffffffff8111156120d4576120d36124dc565b5b6040519080825280601f01601f1916602001820160405280156121065781602001600182028036833780820191505090505b5090506000805b602081101561227957600060ff82601f6121279190613801565b60086121339190613835565b87901c169050600083118061214b575060008160ff16115b1561226557600060048260ff16901c90506000600f83169050600a8260ff16106121845781605761217c9190613884565b60f81b612195565b8160306121919190613884565b60f81b5b8686806121a190613264565b9750815181106121b4576121b3613206565b5b60200101907effffffffffffffffffffffffffffffffffffffffffffffffffffffffffffff1916908160001a905350600a8160ff1610612203578060576121fb9190613884565b60f81b612214565b8060306122109190613884565b60f81b5b86868061222090613264565b97508151811061223357612232613206565b5b60200101907effffffffffffffffffffffffffffffffffffffffffffffffffffffffffffff1916908160001a90535050505b50808061227190613264565b91505061210d565b50600060028261228991906138b9565b67ffffffffffffffff8111156122a2576122a16124dc565b5b6040519080825280601f01601f1916602001820160405280156122d45781602001600182028036833780820191505090505b5090507f30000000000000000000000000000000000000000000000000000000000000008160008151811061230c5761230b613206565b5b60200101907effffffffffffffffffffffffffffffffffffffffffffffffffffffffffffff1916908160001a9053507f7800000000000000000000000000000000000000000000000000000000000000816001815181106123705761236f613206565b5b60200101907effffffffffffffffffffffffffffffffffffffffffffffffffffffffffffff1916908160001a90535060005b82811015612429578381815181106123bd576123bc613206565b5b602001015160f81c60f81b826002836123d691906138b9565b815181106123e7576123e6613206565b5b60200101907effffffffffffffffffffffffffffffffffffffffffffffffffffffffffffff1916908160001a905350808061242190613264565b9150506123a2565b508093505050505b919050565b600033905090565b60405180608001604052806060815260200160608152602001600081526020016000151581525090565b6040518060a0016040528060608152602001600073ffffffffffffffffffffffffffffffffffffffff1681526020016000815260200160608152602001606081525090565b6000604051905090565b600080fd5b600080fd5b600080fd5b600080fd5b6000601f19601f8301169050919050565b7f4e487b7100000000000000000000000000000000000000000000000000000000600052604160045260246000fd5b612514826124cb565b810181811067ffffffffffffffff82111715612533576125326124dc565b5b80604052505050565b60006125466124ad565b9050612552828261250b565b919050565b600067ffffffffffffffff821115612572576125716124dc565b5b61257b826124cb565b9050602081019050919050565b82818337600083830152505050565b60006125aa6125a584612557565b61253c565b9050828152602081018484840111156125c6576125c56124c6565b5b6125d1848285612588565b509392505050565b600082601f8301126125ee576125ed6124c1565b5b81356125fe848260208601612597565b91505092915050565b6000806000606084860312156126205761261f6124b7565b5b600084013567ffffffffffffffff81111561263e5761263d6124bc565b5b61264a868287016125d9565b935050602084013567ffffffffffffffff81111561266b5761266a6124bc565b5b612677868287016125d9565b925050604084013567ffffffffffffffff811115612698576126976124bc565b5b6126a4868287016125d9565b9150509250925092565b6000819050919050565b6126c1816126ae565b82525050565b60006020820190506126dc60008301846126b8565b92915050565b6000602082840312156126f8576126f76124b7565b5b600082013567ffffffffffffffff811115612716576127156124bc565b5b612722848285016125d9565b91505092915050565b600081519050919050565b600082825260208201905092915050565b6000819050602082019050919050565b600081519050919050565b600082825260208201905092915050565b60005b83811015612791578082015181840152602081019050612776565b60008484015250505050565b60006127a882612757565b6127b28185612762565b93506127c2818560208601612773565b6127cb816124cb565b840191505092915050565b6127df816126ae565b82525050565b60008115159050919050565b6127fa816127e5565b82525050565b6000608083016000830151848203600086015261281d828261279d565b91505060208301518482036020860152612837828261279d565b915050604083015161284c60408601826127d6565b50606083015161285f60608601826127f1565b508091505092915050565b60006128768383612800565b905092915050565b6000602082019050919050565b60006128968261272b565b6128a08185612736565b9350836020820285016128b285612747565b8060005b858110156128ee57848403895281516128cf858261286a565b94506128da8361287e565b925060208a019950506001810190506128b6565b50829750879550505050505092915050565b6000602082019050818103600083015261291a818461288b565b905092915050565b600073ffffffffffffffffffffffffffffffffffffffff82169050919050565b600061294d82612922565b9050919050565b61295d81612942565b82525050565b600060a0830160008301518482036000860152612980828261279d565b91505060208301516129956020860182612954565b5060408301516129a860408601826127d6565b50606083015184820360608601526129c0828261279d565b915050608083015184820360808601526129da828261279d565b9150508091505092915050565b60006020820190508181036000830152612a018184612963565b905092915050565b612a1281612942565b8114612a1d57600080fd5b50565b600081359050612a2f81612a09565b92915050565b600060208284031215612a4b57612a4a6124b7565b5b6000612a5984828501612a20565b91505092915050565b600081519050919050565b600082825260208201905092915050565b6000819050602082019050919050565b6000612a9a838361279d565b905092915050565b6000602082019050919050565b6000612aba82612a62565b612ac48185612a6d565b935083602082028501612ad685612a7e565b8060005b85811015612b125784840389528151612af38582612a8e565b9450612afe83612aa2565b925060208a01995050600181019050612ada565b50829750879550505050505092915050565b60006020820190508181036000830152612b3e8184612aaf565b905092915050565b612b4f81612942565b82525050565b6000602082019050612b6a6000830184612b46565b92915050565b612b79816127e5565b82525050565b6000604082019050612b946000830185612b70565b8181036020830152612ba68184612963565b90509392505050565b60008060408385031215612bc657612bc56124b7565b5b600083013567ffffffffffffffff811115612be457612be36124bc565b5b612bf0858286016125d9565b9250506020612c0185828601612a20565b9150509250929050565b612c14816126ae565b8114612c1f57600080fd5b50565b600081359050612c3181612c0b565b92915050565b60008060408385031215612c4e57612c4d6124b7565b5b600083013567ffffffffffffffff811115612c6c57612c6b6124bc565b5b612c78858286016125d9565b9250506020612c8985828601612c22565b9150509250929050565b600082825260208201905092915050565b6000612caf82612757565b612cb98185612c93565b9350612cc9818560208601612773565b612cd2816124cb565b840191505092915050565b60006020820190508181036000830152612cf78184612ca4565b905092915050565b7f446f63756d656e7420686173682063616e6e6f7420626520656d707479000000600082015250565b6000612d35601d83612c93565b9150612d4082612cff565b602082019050919050565b60006020820190508181036000830152612d6481612d28565b9050919050565b600081905092915050565b6000612d8182612757565b612d8b8185612d6b565b9350612d9b818560208601612773565b80840191505092915050565b6000612db38284612d76565b915081905092915050565b7f4e487b7100000000000000000000000000000000000000000000000000000000600052602260045260246000fd5b60006002820490506001821680612e0557607f821691505b602082108103612e1857612e17612dbe565b5b50919050565b7f446f63756d656e7420616c726561647920657869737473000000000000000000600082015250565b6000612e54601783612c93565b9150612e5f82612e1e565b602082019050919050565b60006020820190508181036000830152612e8381612e47565b9050919050565b60008190508160005260206000209050919050565b60006020601f8301049050919050565b600082821b905092915050565b600060088302612eec7fffffffffffffffffffffffffffffffffffffffffffffffffffffffffffffffff82612eaf565b612ef68683612eaf565b95508019841693508086168417925050509392505050565b6000819050919050565b6000612f33612f2e612f29846126ae565b612f0e565b6126ae565b9050919050565b6000819050919050565b612f4d83612f18565b612f61612f5982612f3a565b848454612ebc565b825550505050565b600090565b612f76612f69565b612f81818484612f44565b505050565b5b81811015612fa557612f9a600082612f6e565b600181019050612f87565b5050565b601f821115612fea57612fbb81612e8a565b612fc484612e9f565b81016020851015612fd3578190505b612fe7612fdf85612e9f565b830182612f86565b50505b505050565b600082821c905092915050565b600061300d60001984600802612fef565b1980831691505092915050565b60006130268383612ffc565b9150826002028217905092915050565b61303f82612757565b67ffffffffffffffff811115613058576130576124dc565b5b6130628254612ded565b61306d828285612fa9565b600060209050601f8311600181146130a0576000841561308e578287015190505b613098858261301a565b865550613100565b601f1984166130ae86612e8a565b60005b828110156130d6578489015182556001820191506020850194506020810190506130b1565b868310156130f357848901516130ef601f891682612ffc565b8355505b6001600288020188555050505b505050505050565b7f446f63756d656e7420646f6573206e6f74206578697374000000000000000000600082015250565b600061313e601783612c93565b915061314982613108565b602082019050919050565b6000602082019050818103600083015261316d81613131565b9050919050565b7f4f6e6c792074686520646f63756d656e74206f776e65722063616e207669657760008201527f20736861726520746f6b656e7300000000000000000000000000000000000000602082015250565b60006131d0602d83612c93565b91506131db82613174565b604082019050919050565b600060208201905081810360008301526131ff816131c3565b9050919050565b7f4e487b7100000000000000000000000000000000000000000000000000000000600052603260045260246000fd5b7f4e487b7100000000000000000000000000000000000000000000000000000000600052601160045260246000fd5b600061326f826126ae565b91507fffffffffffffffffffffffffffffffffffffffffffffffffffffffffffffffff82036132a1576132a0613235565b5b600182019050919050565b600081546132b981612ded565b6132c38186612d6b565b945060018216600081146132de57600181146132f357613326565b60ff1983168652811515820286019350613326565b6132fc85612e8a565b60005b8381101561331e578154818901526001820191506020810190506132ff565b838801955050505b50505092915050565b600061333b82846132ac565b915081905092915050565b7f536861726520746f6b656e20646f6573206e6f74206578697374000000000000600082015250565b600061337c601a83612c93565b915061338782613346565b602082019050919050565b600060208201905081810360008301526133ab8161336f565b9050919050565b7f4f6e6c792074686520646f63756d656e74206f776e65722063616e207265766f60008201527f6b6520736861726520746f6b656e730000000000000000000000000000000000602082015250565b600061340e602f83612c93565b9150613419826133b2565b604082019050919050565b6000602082019050818103600083015261343d81613401565b9050919050565b7f4f6e6c792074686520646f63756d656e74206f776e65722063616e207472616e60008201527f73666572206f776e657273686970000000000000000000000000000000000000602082015250565b60006134a0602e83612c93565b91506134ab82613444565b604082019050919050565b600060208201905081810360008301526134cf81613493565b9050919050565b7f4e6577206f776e65722063616e6e6f7420626520746865207a65726f2061646460008201527f7265737300000000000000000000000000000000000000000000000000000000602082015250565b6000613532602483612c93565b915061353d826134d6565b604082019050919050565b6000602082019050818103600083015261356181613525565b9050919050565b7f4e6577206f776e65722063616e6e6f74206265207468652063757272656e742060008201527f6f776e6572000000000000000000000000000000000000000000000000000000602082015250565b60006135c4602583612c93565b91506135cf82613568565b604082019050919050565b600060208201905081810360008301526135f3816135b7565b9050919050565b7f4f6e6c792074686520646f63756d656e74206f776e65722063616e206372656160008201527f746520736861726520746f6b656e730000000000000000000000000000000000602082015250565b6000613656602f83612c93565b9150613661826135fa565b604082019050919050565b6000602082019050818103600083015261368581613649565b9050919050565b7f4578706972792074696d65206d75737420626520696e2074686520667574757260008201527f6500000000000000000000000000000000000000000000000000000000000000602082015250565b60006136e8602183612c93565b91506136f38261368c565b604082019050919050565b60006020820190508181036000830152613717816136db565b9050919050565b60008160601b9050919050565b60006137368261371e565b9050919050565b60006137488261372b565b9050919050565b61376061375b82612942565b61373d565b82525050565b6000819050919050565b61378161377c826126ae565b613766565b82525050565b60006137938287612d76565b915061379f828661374f565b6014820191506137af8285613770565b6020820191506137bf8284613770565b60208201915081905095945050505050565b600060408201905081810360008301526137eb8185612ca4565b90506137fa60208301846126b8565b9392505050565b600061380c826126ae565b9150613817836126ae565b925082820390508181111561382f5761382e613235565b5b92915050565b6000613840826126ae565b915061384b836126ae565b9250828202613859816126ae565b915082820484148315176138705761386f613235565b5b5092915050565b600060ff82169050919050565b600061388f82613877565b915061389a83613877565b9250828201905060ff8111156138b3576138b2613235565b5b92915050565b60006138c4826126ae565b91506138cf836126ae565b92508282019050808211156138e7576138e6613235565b5b9291505056fea26469706673582212206cad73adbce880e4da1c17224fc9483c9d9125783d0fc45084cc2911def03dd364736f6c63430008140033",
  "linkReferences": {},
  "deployedLinkReferences": {}
}