{
  "_format": "hh-sol-artifact-1",
  "contractName": "DocumentVerification",
  "sourceName": "contracts/DocumentVerification.sol",
  "abi": [
    {
      "inputs": [],
      "stateMutability": "nonpayable",
      "type": "constructor"
    },
    {
      "inputs": [
        {
          "internalType": "address",
          "name": "owner",
          "type": "address"
        }
      ],
      "name": "OwnableInvalidOwner",
      "type": "error"
    },
    {
      "inputs": [
        {
          "internalType": "address",
          "name": "account",
          "type": "address"
        }
      ],
      "name": "OwnableUnauthorizedAccount",
      "type": "error"
    },
    {
      "anonymous": false,
      "inputs": [
        {
          "indexed": true,
          "internalType": "string",
          "name": "documentHash",
          "type": "string"
        },
        {
          "indexed": true,
          "internalType": "address",
          "name": "owner",
          "type": "address"
        },
        {
          "indexed": false,
          "internalType": "uint256",
          "name": "timestamp",
          "type": "uint256"
        }
      ],
      "name": "DocumentAdded",
      "type": "event"
    },
    {
      "anonymous": false,
      "inputs": [
        {
          "indexed": true,
          "internalType": "address",
          "name": "previousOwner",
          "type": "address"
        },
        {
          "indexed": true,
          "internalType": "address",
          "name": "newOwner",
          "type": "address"
        }
      ],
      "name": "OwnershipTransferred",
      "type": "event"
    },
    {
      "inputs": [
        {
          "internalType": "string",
          "name": "_documentHash",
          "type": "string"
        },
        {
          "internalType": "string",
          "name": "_documentType",
          "type": "string"
        },
        {
          "internalType": "string",
          "name": "_documentName",
          "type": "string"
        }
      ],
      "name": "addDocument",
      "outputs": [],
      "stateMutability": "nonpayable",
      "type": "function"
    },
    {
      "inputs": [
        {
          "internalType": "string",
          "name": "_documentHash",
          "type": "string"
        }
      ],
      "name": "getDocument",
      "outputs": [
        {
          "components": [
            {
              "internalType": "string",
              "name": "documentHash",
              "type": "string"
            },
            {
              "internalType": "address",
              "name": "owner",
              "type": "address"
            },
            {
              "internalType": "uint256",
              "name": "timestamp",
              "type": "uint256"
            },
            {
              "internalType": "string",
              "name": "documentType",
              "type": "string"
            },
            {
              "internalType": "string",
              "name": "documentName",
              "type": "string"
            }
          ],
          "internalType": "struct DocumentVerification.Document",
          "name": "",
          "type": "tuple"
        }
      ],
      "stateMutability": "view",
      "type": "function"
    },
    {
      "inputs": [],
      "name": "getDocumentCount",
      "outputs": [
        {
          "internalType": "uint256",
          "name": "",
          "type": "uint256"
        }
      ],
      "stateMutability": "view",
      "type": "function"
    },
    {
      "inputs": [
        {
          "internalType": "address",
          "name": "_owner",
          "type": "address"
        }
      ],
      "name": "getDocumentsByOwner",
      "outputs": [
        {
          "internalType": "string[]",
          "name": "",
          "type": "string[]"
        }
      ],
      "stateMutability": "view",
      "type": "function"
    },
    {
      "inputs": [],
      "name": "owner",
      "outputs": [
        {
          "internalType": "address",
          "name": "",
          "type": "address"
        }
      ],
      "stateMutability": "view",
      "type": "function"
    },
    {
      "inputs": [],
      "name": "renounceOwnership",
      "outputs": [],
      "stateMutability": "nonpayable",
      "type": "function"
    },
    {
      "inputs": [
        {
          "internalType": "address",
          "name": "newOwner",
          "type": "address"
        }
      ],
      "name": "transferOwnership",
      "outputs": [],
      "stateMutability": "nonpayable",
      "type": "function"
    },
    {
      "inputs": [
        {
          "internalType": "string",
          "name": "_documentHash",
          "type": "string"
        }
      ],
      "name": "verifyDocument",
      "outputs": [
        {
          "internalType": "bool",
          "name": "isAuthentic",
          "type": "bool"
        },
        {
          "components": [
            {
              "internalType": "string",
              "name": "documentHash",
              "type": "string"
            },
            {
              "internalType": "address",
              "name": "owner",
              "type": "address"
            },
            {
              "internalType": "uint256",
              "name": "timestamp",
              "type": "uint256"
            },
            {
              "internalType": "string",
              "name": "documentType",
              "type": "string"
            },
            {
              "internalType": "string",
              "name": "documentName",
              "type": "string"
            }
          ],
          "internalType": "struct DocumentVerification.Document",
          "name": "documentInfo",
          "type": "tuple"
        }
      ],
      "stateMutability": "view",
      "type": "function"
    }
  ],
  "bytecode": "0x60806040523480156200001157600080fd5b5033600073ffffffffffffffffffffffffffffffffffffffff168173ffffffffffffffffffffffffffffffffffffffff1603620000885760006040517f1e4fbdf70000000000000000000000000000000000000000000000000000000081526004016200007f9190620001a9565b60405180910390fd5b6200009981620000a060201b60201c565b50620001c6565b60008060009054906101000a900473ffffffffffffffffffffffffffffffffffffffff169050816000806101000a81548173ffffffffffffffffffffffffffffffffffffffff021916908373ffffffffffffffffffffffffffffffffffffffff1602179055508173ffffffffffffffffffffffffffffffffffffffff168173ffffffffffffffffffffffffffffffffffffffff167f8be0079c531659141344cd1fd0a4f28419497f9722a3daafe3b4186f6b6457e060405160405180910390a35050565b600073ffffffffffffffffffffffffffffffffffffffff82169050919050565b6000620001918262000164565b9050919050565b620001a38162000184565b82525050565b6000602082019050620001c0600083018462000198565b92915050565b6118fb80620001d66000396000f3fe608060405234801561001057600080fd5b50600436106100885760003560e01c80637ddfc7d41161005b5780637ddfc7d4146101015780638da5cb5b14610131578063beee5eb71461014f578063f2fde38b1461018057610088565b806336a8915b1461008d5780633d1c2273146100a9578063715018a6146100c75780637ccb6a64146100d1575b600080fd5b6100a760048036038101906100a29190610f20565b61019c565b005b6100b16103df565b6040516100be9190610fe0565b60405180910390f35b6100cf6103ec565b005b6100eb60048036038101906100e69190610ffb565b610400565b6040516100f89190611197565b60405180910390f35b61011b600480360381019061011691906111e5565b61064e565b60405161012891906112d4565b60405180910390f35b6101396108fc565b6040516101469190611305565b60405180910390f35b61016960048036038101906101649190610ffb565b610925565b60405161017792919061133b565b60405180910390f35b61019a600480360381019061019591906111e5565b610ba8565b005b60008351116101e0576040517f08c379a00000000000000000000000000000000000000000000000000000000081526004016101d7906113c8565b60405180910390fd5b60006001846040516101f29190611424565b9081526020016040518091039020600001805461020e9061146a565b905014610250576040517f08c379a0000000000000000000000000000000000000000000000000000000008152600401610247906114e7565b60405180910390fd5b6040518060a001604052808481526020013373ffffffffffffffffffffffffffffffffffffffff1681526020014281526020018381526020018281525060018460405161029d9190611424565b908152602001604051809103902060008201518160000190816102c091906116b3565b5060208201518160010160006101000a81548173ffffffffffffffffffffffffffffffffffffffff021916908373ffffffffffffffffffffffffffffffffffffffff16021790555060408201518160020155606082015181600301908161032791906116b3565b50608082015181600401908161033d91906116b3565b5090505060028390806001815401808255809150506001900390600052602060002001600090919091909150908161037591906116b3565b503373ffffffffffffffffffffffffffffffffffffffff168360405161039b9190611424565b60405180910390207fc6b68a4d2229a04f4ab4f6fa272ce60f973c078b7f2b0e6feb7493dd90b7dc04426040516103d29190610fe0565b60405180910390a3505050565b6000600280549050905090565b6103f4610c2e565b6103fe6000610cb5565b565b610408610d81565b6001826040516104189190611424565b90815260200160405180910390206040518060a00160405290816000820180546104419061146a565b80601f016020809104026020016040519081016040528092919081815260200182805461046d9061146a565b80156104ba5780601f1061048f576101008083540402835291602001916104ba565b820191906000526020600020905b81548152906001019060200180831161049d57829003601f168201915b505050505081526020016001820160009054906101000a900473ffffffffffffffffffffffffffffffffffffffff1673ffffffffffffffffffffffffffffffffffffffff1673ffffffffffffffffffffffffffffffffffffffff168152602001600282015481526020016003820180546105339061146a565b80601f016020809104026020016040519081016040528092919081815260200182805461055f9061146a565b80156105ac5780601f10610581576101008083540402835291602001916105ac565b820191906000526020600020905b81548152906001019060200180831161058f57829003601f168201915b505050505081526020016004820180546105c59061146a565b80601f01602080910402602001604051908101604052809291908181526020018280546105f19061146a565b801561063e5780601f106106135761010080835404028352916020019161063e565b820191906000526020600020905b81548152906001019060200180831161062157829003601f168201915b5050505050815250509050919050565b60606000805b600280549050811015610714578373ffffffffffffffffffffffffffffffffffffffff1660016002838154811061068e5761068d611785565b5b906000526020600020016040516106a59190611837565b908152602001604051809103902060010160009054906101000a900473ffffffffffffffffffffffffffffffffffffffff1673ffffffffffffffffffffffffffffffffffffffff16036107015781806106fd9061187d565b9250505b808061070c9061187d565b915050610654565b5060008167ffffffffffffffff81111561073157610730610df5565b5b60405190808252806020026020018201604052801561076457816020015b606081526020019060019003908161074f5790505b5090506000805b6002805490508110156108f0578573ffffffffffffffffffffffffffffffffffffffff166001600283815481106107a5576107a4611785565b5b906000526020600020016040516107bc9190611837565b908152602001604051809103902060010160009054906101000a900473ffffffffffffffffffffffffffffffffffffffff1673ffffffffffffffffffffffffffffffffffffffff16036108dd576002818154811061081d5761081c611785565b5b9060005260206000200180546108329061146a565b80601f016020809104026020016040519081016040528092919081815260200182805461085e9061146a565b80156108ab5780601f10610880576101008083540402835291602001916108ab565b820191906000526020600020905b81548152906001019060200180831161088e57829003601f168201915b50505050508383815181106108c3576108c2611785565b5b602002602001018190525081806108d99061187d565b9250505b80806108e89061187d565b91505061076b565b50819350505050919050565b60008060009054906101000a900473ffffffffffffffffffffffffffffffffffffffff16905090565b600061092f610d81565b60006001846040516109419190611424565b9081526020016040518091039020600001805461095d9061146a565b90501191506001836040516109729190611424565b90815260200160405180910390206040518060a001604052908160008201805461099b9061146a565b80601f01602080910402602001604051908101604052809291908181526020018280546109c79061146a565b8015610a145780601f106109e957610100808354040283529160200191610a14565b820191906000526020600020905b8154815290600101906020018083116109f757829003601f168201915b505050505081526020016001820160009054906101000a900473ffffffffffffffffffffffffffffffffffffffff1673ffffffffffffffffffffffffffffffffffffffff1673ffffffffffffffffffffffffffffffffffffffff16815260200160028201548152602001600382018054610a8d9061146a565b80601f0160208091040260200160405190810160405280929190818152602001828054610ab99061146a565b8015610b065780601f10610adb57610100808354040283529160200191610b06565b820191906000526020600020905b815481529060010190602001808311610ae957829003601f168201915b50505050508152602001600482018054610b1f9061146a565b80601f0160208091040260200160405190810160405280929190818152602001828054610b4b9061146a565b8015610b985780601f10610b6d57610100808354040283529160200191610b98565b820191906000526020600020905b815481529060010190602001808311610b7b57829003601f168201915b5050505050815250509050915091565b610bb0610c2e565b600073ffffffffffffffffffffffffffffffffffffffff168173ffffffffffffffffffffffffffffffffffffffff1603610c225760006040517f1e4fbdf7000000000000000000000000000000000000000000000000000000008152600401610c199190611305565b60405180910390fd5b610c2b81610cb5565b50565b610c36610d79565b73ffffffffffffffffffffffffffffffffffffffff16610c546108fc565b73ffffffffffffffffffffffffffffffffffffffff1614610cb357610c77610d79565b6040517f118cdaa7000000000000000000000000000000000000000000000000000000008152600401610caa9190611305565b60405180910390fd5b565b60008060009054906101000a900473ffffffffffffffffffffffffffffffffffffffff169050816000806101000a81548173ffffffffffffffffffffffffffffffffffffffff021916908373ffffffffffffffffffffffffffffffffffffffff1602179055508173ffffffffffffffffffffffffffffffffffffffff168173ffffffffffffffffffffffffffffffffffffffff167f8be0079c531659141344cd1fd0a4f28419497f9722a3daafe3b4186f6b6457e060405160405180910390a35050565b600033905090565b6040518060a0016040528060608152602001600073ffffffffffffffffffffffffffffffffffffffff1681526020016000815260200160608152602001606081525090565b6000604051905090565b600080fd5b600080fd5b600080fd5b600080fd5b6000601f19601f8301169050919050565b7f4e487b7100000000000000000000000000000000000000000000000000000000600052604160045260246000fd5b610e2d82610de4565b810181811067ffffffffffffffff82111715610e4c57610e4b610df5565b5b80604052505050565b6000610e5f610dc6565b9050610e6b8282610e24565b919050565b600067ffffffffffffffff821115610e8b57610e8a610df5565b5b610e9482610de4565b9050602081019050919050565b82818337600083830152505050565b6000610ec3610ebe84610e70565b610e55565b905082815260208101848484011115610edf57610ede610ddf565b5b610eea848285610ea1565b509392505050565b600082601f830112610f0757610f06610dda565b5b8135610f17848260208601610eb0565b91505092915050565b600080600060608486031215610f3957610f38610dd0565b5b600084013567ffffffffffffffff811115610f5757610f56610dd5565b5b610f6386828701610ef2565b935050602084013567ffffffffffffffff811115610f8457610f83610dd5565b5b610f9086828701610ef2565b925050604084013567ffffffffffffffff811115610fb157610fb0610dd5565b5b610fbd86828701610ef2565b9150509250925092565b6000819050919050565b610fda81610fc7565b82525050565b6000602082019050610ff56000830184610fd1565b92915050565b60006020828403121561101157611010610dd0565b5b600082013567ffffffffffffffff81111561102f5761102e610dd5565b5b61103b84828501610ef2565b91505092915050565b600081519050919050565b600082825260208201905092915050565b60005b8381101561107e578082015181840152602081019050611063565b60008484015250505050565b600061109582611044565b61109f818561104f565b93506110af818560208601611060565b6110b881610de4565b840191505092915050565b600073ffffffffffffffffffffffffffffffffffffffff82169050919050565b60006110ee826110c3565b9050919050565b6110fe816110e3565b82525050565b61110d81610fc7565b82525050565b600060a0830160008301518482036000860152611130828261108a565b915050602083015161114560208601826110f5565b5060408301516111586040860182611104565b5060608301518482036060860152611170828261108a565b9150506080830151848203608086015261118a828261108a565b9150508091505092915050565b600060208201905081810360008301526111b18184611113565b905092915050565b6111c2816110e3565b81146111cd57600080fd5b50565b6000813590506111df816111b9565b92915050565b6000602082840312156111fb576111fa610dd0565b5b6000611209848285016111d0565b91505092915050565b600081519050919050565b600082825260208201905092915050565b6000819050602082019050919050565b600061124a838361108a565b905092915050565b6000602082019050919050565b600061126a82611212565b611274818561121d565b9350836020820285016112868561122e565b8060005b858110156112c257848403895281516112a3858261123e565b94506112ae83611252565b925060208a0199505060018101905061128a565b50829750879550505050505092915050565b600060208201905081810360008301526112ee818461125f565b905092915050565b6112ff816110e3565b82525050565b600060208201905061131a60008301846112f6565b92915050565b60008115159050919050565b61133581611320565b82525050565b6000604082019050611350600083018561132c565b81810360208301526113628184611113565b90509392505050565b600082825260208201905092915050565b7f446f63756d656e7420686173682063616e6e6f7420626520656d707479000000600082015250565b60006113b2601d8361136b565b91506113bd8261137c565b602082019050919050565b600060208201905081810360008301526113e1816113a5565b9050919050565b600081905092915050565b60006113fe82611044565b61140881856113e8565b9350611418818560208601611060565b80840191505092915050565b600061143082846113f3565b915081905092915050565b7f4e487b7100000000000000000000000000000000000000000000000000000000600052602260045260246000fd5b6000600282049050600182168061148257607f821691505b6020821081036114955761149461143b565b5b50919050565b7f446f63756d656e7420616c726561647920657869737473000000000000000000600082015250565b60006114d160178361136b565b91506114dc8261149b565b602082019050919050565b60006020820190508181036000830152611500816114c4565b9050919050565b60008190508160005260206000209050919050565b60006020601f8301049050919050565b600082821b905092915050565b6000600883026115697fffffffffffffffffffffffffffffffffffffffffffffffffffffffffffffffff8261152c565b611573868361152c565b95508019841693508086168417925050509392505050565b6000819050919050565b60006115b06115ab6115a684610fc7565b61158b565b610fc7565b9050919050565b6000819050919050565b6115ca83611595565b6115de6115d6826115b7565b848454611539565b825550505050565b600090565b6115f36115e6565b6115fe8184846115c1565b505050565b5b81811015611622576116176000826115eb565b600181019050611604565b5050565b601f8211156116675761163881611507565b6116418461151c565b81016020851015611650578190505b61166461165c8561151c565b830182611603565b50505b505050565b600082821c905092915050565b600061168a6000198460080261166c565b1980831691505092915050565b60006116a38383611679565b9150826002028217905092915050565b6116bc82611044565b67ffffffffffffffff8111156116d5576116d4610df5565b5b6116df825461146a565b6116ea828285611626565b600060209050601f83116001811461171d576000841561170b578287015190505b6117158582611697565b86555061177d565b601f19841661172b86611507565b60005b828110156117535784890151825560018201915060208501945060208101905061172e565b86831015611770578489015161176c601f891682611679565b8355505b6001600288020188555050505b505050505050565b7f4e487b7100000000000000000000000000000000000000000000000000000000600052603260045260246000fd5b600081546117c18161146a565b6117cb81866113e8565b945060018216600081146117e657600181146117fb5761182e565b60ff198316865281151582028601935061182e565b61180485611507565b60005b8381101561182657815481890152600182019150602081019050611807565b838801955050505b50505092915050565b600061184382846117b4565b915081905092915050565b7f4e487b7100000000000000000000000000000000000000000000000000000000600052601160045260246000fd5b600061188882610fc7565b91507fffffffffffffffffffffffffffffffffffffffffffffffffffffffffffffffff82036118ba576118b961184e565b5b60018201905091905056fea2646970667358221220b886a6cc1da3521889f63e608324a4992d1216455a3e38b0e07922f0fa7c92a464736f6c63430008140033",
  "linkReferences": {},
  "deployedLinkReferences": {}
}